{
  "_format": "hh-sol-artifact-1",
  "contractName": "BaseIdentityReputation",
  "sourceName": "contracts/BaseIdentityReputation.sol",
  "abi": [
    {
      "anonymous": false,
      "inputs": [
        {
          "indexed": true,
          "internalType": "address",
          "name": "user",
          "type": "address"
        },
        {
          "indexed": false,
          "internalType": "string",
          "name": "metadataURI",
          "type": "string"
        }
      ],
      "name": "MetadataUpdated",
      "type": "event"
    },
    {
      "anonymous": false,
      "inputs": [
        {
          "indexed": true,
          "internalType": "address",
          "name": "user",
          "type": "address"
        },
        {
          "indexed": false,
          "internalType": "string",
          "name": "metadataURI",
          "type": "string"
        }
      ],
      "name": "Registered",
      "type": "event"
    },
    {
      "anonymous": false,
      "inputs": [
        {
          "indexed": true,
          "internalType": "address",
          "name": "from",
          "type": "address"
        },
        {
          "indexed": true,
          "internalType": "address",
          "name": "to",
          "type": "address"
        },
        {
          "indexed": false,
          "internalType": "uint256",
          "name": "amount",
          "type": "uint256"
        }
      ],
      "name": "ReputationGiven",
      "type": "event"
    },
    {
      "inputs": [
        {
          "internalType": "address",
          "name": "user",
          "type": "address"
        }
      ],
      "name": "getProfile",
      "outputs": [
        {
          "internalType": "bool",
          "name": "registered",
          "type": "bool"
        },
        {
          "internalType": "string",
          "name": "metadataURI",
          "type": "string"
        },
        {
          "internalType": "uint256",
          "name": "reputation",
          "type": "uint256"
        }
      ],
      "stateMutability": "view",
      "type": "function"
    },
    {
      "inputs": [
        {
          "internalType": "address",
          "name": "to",
          "type": "address"
        },
        {
          "internalType": "uint256",
          "name": "amount",
          "type": "uint256"
        }
      ],
      "name": "giveReputation",
      "outputs": [],
      "stateMutability": "nonpayable",
      "type": "function"
    },
    {
      "inputs": [
        {
          "internalType": "address",
          "name": "",
          "type": "address"
        },
        {
          "internalType": "address",
          "name": "",
          "type": "address"
        }
      ],
      "name": "givenReputation",
      "outputs": [
        {
          "internalType": "uint256",
          "name": "",
          "type": "uint256"
        }
      ],
      "stateMutability": "view",
      "type": "function"
    },
    {
      "inputs": [
        {
          "internalType": "address",
          "name": "user",
          "type": "address"
        }
      ],
      "name": "isRegistered",
      "outputs": [
        {
          "internalType": "bool",
          "name": "",
          "type": "bool"
        }
      ],
      "stateMutability": "view",
      "type": "function"
    },
    {
      "inputs": [
        {
          "internalType": "string",
          "name": "metadataURI",
          "type": "string"
        }
      ],
      "name": "register",
      "outputs": [],
      "stateMutability": "nonpayable",
      "type": "function"
    },
    {
      "inputs": [
        {
          "internalType": "address",
          "name": "user",
          "type": "address"
        }
      ],
      "name": "reputationOf",
      "outputs": [
        {
          "internalType": "uint256",
          "name": "",
          "type": "uint256"
        }
      ],
      "stateMutability": "view",
      "type": "function"
    },
    {
      "inputs": [
        {
          "internalType": "string",
          "name": "metadataURI",
          "type": "string"
        }
      ],
      "name": "updateMetadata",
      "outputs": [],
      "stateMutability": "nonpayable",
      "type": "function"
    }
  ],
  "bytecode": "0x608060405234801561001057600080fd5b506114e0806100206000396000f3fe608060405234801561001057600080fd5b506004361061007d5760003560e01c8063c3c5a5471161005b578063c3c5a54714610100578063db89c04414610130578063ed408bb314610160578063f2c298be1461017c5761007d565b80630f53a47014610082578063918b5be1146100b4578063b66cfdf1146100d0575b600080fd5b61009c60048036038101906100979190610ab4565b610198565b6040516100ab93929190610ba5565b60405180910390f35b6100ce60048036038101906100c99190610c48565b6102be565b005b6100ea60048036038101906100e59190610c95565b6103f1565b6040516100f79190610cd5565b60405180910390f35b61011a60048036038101906101159190610ab4565b610416565b6040516101279190610cf0565b60405180910390f35b61014a60048036038101906101459190610ab4565b61046e565b6040516101579190610cd5565b60405180910390f35b61017a60048036038101906101759190610d37565b6104b9565b005b61019660048036038101906101919190610c48565b610885565b005b600060606000806000808673ffffffffffffffffffffffffffffffffffffffff1673ffffffffffffffffffffffffffffffffffffffff1681526020019081526020016000206040518060600160405290816000820160009054906101000a900460ff1615151515815260200160018201805461021390610da6565b80601f016020809104026020016040519081016040528092919081815260200182805461023f90610da6565b801561028c5780601f106102615761010080835404028352916020019161028c565b820191906000526020600020905b81548152906001019060200180831161026f57829003601f168201915b505050505081526020016002820154815250509050806000015181602001518260400151935093509350509193909250565b6000803373ffffffffffffffffffffffffffffffffffffffff1673ffffffffffffffffffffffffffffffffffffffff16815260200190815260200160002060000160009054906101000a900460ff1661034c576040517f08c379a000000000000000000000000000000000000000000000000000000000815260040161034390610e23565b60405180910390fd5b81816000803373ffffffffffffffffffffffffffffffffffffffff1673ffffffffffffffffffffffffffffffffffffffff168152602001908152602001600020600101918261039c929190611029565b503373ffffffffffffffffffffffffffffffffffffffff167f2013570c343af8ab14a9778150e381a0fda34ed6368127a95fd5e7210cbec5bf83836040516103e5929190611135565b60405180910390a25050565b6001602052816000526040600020602052806000526040600020600091509150505481565b60008060008373ffffffffffffffffffffffffffffffffffffffff1673ffffffffffffffffffffffffffffffffffffffff16815260200190815260200160002060000160009054906101000a900460ff169050919050565b60008060008373ffffffffffffffffffffffffffffffffffffffff1673ffffffffffffffffffffffffffffffffffffffff168152602001908152602001600020600201549050919050565b6000803373ffffffffffffffffffffffffffffffffffffffff1673ffffffffffffffffffffffffffffffffffffffff16815260200190815260200160002060000160009054906101000a900460ff16610547576040517f08c379a000000000000000000000000000000000000000000000000000000000815260040161053e90610e23565b60405180910390fd5b600073ffffffffffffffffffffffffffffffffffffffff168273ffffffffffffffffffffffffffffffffffffffff16036105b6576040517f08c379a00000000000000000000000000000000000000000000000000000000081526004016105ad906111a5565b60405180910390fd5b3373ffffffffffffffffffffffffffffffffffffffff168273ffffffffffffffffffffffffffffffffffffffff1603610624576040517f08c379a000000000000000000000000000000000000000000000000000000000815260040161061b90611211565b60405180910390fd5b60008111610667576040517f08c379a000000000000000000000000000000000000000000000000000000000815260040161065e9061127d565b60405180910390fd5b6000600160003373ffffffffffffffffffffffffffffffffffffffff1673ffffffffffffffffffffffffffffffffffffffff16815260200190815260200160002060008473ffffffffffffffffffffffffffffffffffffffff1673ffffffffffffffffffffffffffffffffffffffff168152602001908152602001600020549050606482826106f691906112cc565b1115610737576040517f08c379a000000000000000000000000000000000000000000000000000000000815260040161072e9061134c565b60405180910390fd5b818161074391906112cc565b600160003373ffffffffffffffffffffffffffffffffffffffff1673ffffffffffffffffffffffffffffffffffffffff16815260200190815260200160002060008573ffffffffffffffffffffffffffffffffffffffff1673ffffffffffffffffffffffffffffffffffffffff16815260200190815260200160002081905550816000808573ffffffffffffffffffffffffffffffffffffffff1673ffffffffffffffffffffffffffffffffffffffff168152602001908152602001600020600201600082825461081491906112cc565b925050819055508273ffffffffffffffffffffffffffffffffffffffff163373ffffffffffffffffffffffffffffffffffffffff167fb98cc368ee7fba517638923150f29ff97c9cee991b65f1bc212ca52622094a49846040516108789190610cd5565b60405180910390a3505050565b6000803373ffffffffffffffffffffffffffffffffffffffff1673ffffffffffffffffffffffffffffffffffffffff16815260200190815260200160002060000160009054906101000a900460ff1615610914576040517f08c379a000000000000000000000000000000000000000000000000000000000815260040161090b906113b8565b60405180910390fd5b604051806060016040528060011515815260200183838080601f016020809104026020016040519081016040528093929190818152602001838380828437600081840152601f19601f82011690508083019250505050505050815260200160008152506000803373ffffffffffffffffffffffffffffffffffffffff1673ffffffffffffffffffffffffffffffffffffffff16815260200190815260200160002060008201518160000160006101000a81548160ff02191690831515021790555060208201518160010190816109ea91906113d8565b50604082015181600201559050503373ffffffffffffffffffffffffffffffffffffffff167fb3eccf73f39b1c07947c780b2b39df2a1bb058b4037b0a42d0881ca1a028a1328383604051610a40929190611135565b60405180910390a25050565b600080fd5b600080fd5b600073ffffffffffffffffffffffffffffffffffffffff82169050919050565b6000610a8182610a56565b9050919050565b610a9181610a76565b8114610a9c57600080fd5b50565b600081359050610aae81610a88565b92915050565b600060208284031215610aca57610ac9610a4c565b5b6000610ad884828501610a9f565b91505092915050565b60008115159050919050565b610af681610ae1565b82525050565b600081519050919050565b600082825260208201905092915050565b60005b83811015610b36578082015181840152602081019050610b1b565b60008484015250505050565b6000601f19601f8301169050919050565b6000610b5e82610afc565b610b688185610b07565b9350610b78818560208601610b18565b610b8181610b42565b840191505092915050565b6000819050919050565b610b9f81610b8c565b82525050565b6000606082019050610bba6000830186610aed565b8181036020830152610bcc8185610b53565b9050610bdb6040830184610b96565b949350505050565b600080fd5b600080fd5b600080fd5b60008083601f840112610c0857610c07610be3565b5b8235905067ffffffffffffffff811115610c2557610c24610be8565b5b602083019150836001820283011115610c4157610c40610bed565b5b9250929050565b60008060208385031215610c5f57610c5e610a4c565b5b600083013567ffffffffffffffff811115610c7d57610c7c610a51565b5b610c8985828601610bf2565b92509250509250929050565b60008060408385031215610cac57610cab610a4c565b5b6000610cba85828601610a9f565b9250506020610ccb85828601610a9f565b9150509250929050565b6000602082019050610cea6000830184610b96565b92915050565b6000602082019050610d056000830184610aed565b92915050565b610d1481610b8c565b8114610d1f57600080fd5b50565b600081359050610d3181610d0b565b92915050565b60008060408385031215610d4e57610d4d610a4c565b5b6000610d5c85828601610a9f565b9250506020610d6d85828601610d22565b9150509250929050565b7f4e487b7100000000000000000000000000000000000000000000000000000000600052602260045260246000fd5b60006002820490506001821680610dbe57607f821691505b602082108103610dd157610dd0610d77565b5b50919050565b7f4e6f742072656769737465726564000000000000000000000000000000000000600082015250565b6000610e0d600e83610b07565b9150610e1882610dd7565b602082019050919050565b60006020820190508181036000830152610e3c81610e00565b9050919050565b600082905092915050565b7f4e487b7100000000000000000000000000000000000000000000000000000000600052604160045260246000fd5b60008190508160005260206000209050919050565b60006020601f8301049050919050565b600082821b905092915050565b600060088302610edf7fffffffffffffffffffffffffffffffffffffffffffffffffffffffffffffffff82610ea2565b610ee98683610ea2565b95508019841693508086168417925050509392505050565b6000819050919050565b6000610f26610f21610f1c84610b8c565b610f01565b610b8c565b9050919050565b6000819050919050565b610f4083610f0b565b610f54610f4c82610f2d565b848454610eaf565b825550505050565b600090565b610f69610f5c565b610f74818484610f37565b505050565b5b81811015610f9857610f8d600082610f61565b600181019050610f7a565b5050565b601f821115610fdd57610fae81610e7d565b610fb784610e92565b81016020851015610fc6578190505b610fda610fd285610e92565b830182610f79565b50505b505050565b600082821c905092915050565b600061100060001984600802610fe2565b1980831691505092915050565b60006110198383610fef565b9150826002028217905092915050565b6110338383610e43565b67ffffffffffffffff81111561104c5761104b610e4e565b5b6110568254610da6565b611061828285610f9c565b6000601f831160018114611090576000841561107e578287013590505b611088858261100d565b8655506110f0565b601f19841661109e86610e7d565b60005b828110156110c6578489013582556001820191506020850194506020810190506110a1565b868310156110e357848901356110df601f891682610fef565b8355505b6001600288020188555050505b50505050505050565b82818337600083830152505050565b60006111148385610b07565b93506111218385846110f9565b61112a83610b42565b840190509392505050565b60006020820190508181036000830152611150818486611108565b90509392505050565b7f496e76616c696420746f00000000000000000000000000000000000000000000600082015250565b600061118f600a83610b07565b915061119a82611159565b602082019050919050565b600060208201905081810360008301526111be81611182565b9050919050565b7f43616e6e6f74206769766520746f2073656c6600000000000000000000000000600082015250565b60006111fb601383610b07565b9150611206826111c5565b602082019050919050565b6000602082019050818103600083015261122a816111ee565b9050919050565b7f416d6f756e74206d757374206265203e20300000000000000000000000000000600082015250565b6000611267601283610b07565b915061127282611231565b602082019050919050565b600060208201905081810360008301526112968161125a565b9050919050565b7f4e487b7100000000000000000000000000000000000000000000000000000000600052601160045260246000fd5b60006112d782610b8c565b91506112e283610b8c565b92508282019050808211156112fa576112f961129d565b5b92915050565b7f52657075746174696f6e206c696d697420726561636865640000000000000000600082015250565b6000611336601883610b07565b915061134182611300565b602082019050919050565b6000602082019050818103600083015261136581611329565b9050919050565b7f416c726561647920726567697374657265640000000000000000000000000000600082015250565b60006113a2601283610b07565b91506113ad8261136c565b602082019050919050565b600060208201905081810360008301526113d181611395565b9050919050565b6113e182610afc565b67ffffffffffffffff8111156113fa576113f9610e4e565b5b6114048254610da6565b61140f828285610f9c565b600060209050601f8311600181146114425760008415611430578287015190505b61143a858261100d565b8655506114a2565b601f19841661145086610e7d565b60005b8281101561147857848901518255600182019150602085019450602081019050611453565b868310156114955784890151611491601f891682610fef565b8355505b6001600288020188555050505b50505050505056fea264697066735822122003d8e2b41761ae4ef206f026dc375a38babc43602a8b0f626e8b1e24f70d90fc64736f6c63430008140033",
  "linkReferences": {},
  "deployedLinkReferences": {}
}